:020000040800F2
:10000000A005002045010008BD0A00084D050008B4
:10001000B90A0008F10100082717000800000000D5
:10002000000000000000000000000000A90C000813
:10003000F501000800000000310B0008950D0008D4
:100040005F0100085F0100085F0100085F01000810
:100050005F0100085F0100085F0100085F01000800
:100060005F0100085F0100085F0100085F010008F0
:100070005F0100085F0100085F0100085F010008E0
:100080005F0100085F0100085F0100085F010008D0
:100090005F0100085F0100085F0100085F010008C0
:1000A0005F0100085F0100085F0100085F010008B0
:1000B000110F00085F0100085F0100085F010008E0
:1000C0005F0100085F0100085F0100085F01000890
:1000D0005F01000841140008451400085F01000892
:1000E0005F0100085F0100085F0100085F01000870
:1000F0005F0100085F0100085F0100085F01000860
:100100005F0100085F0100085F0100085F0100084F
:100110005F0100085F0100085F0100085F0100083F
:100120005F0100085F0100085F0100085F0100082F
:10013000DFF80CD000F02EF800480047391F000807
:10014000A00500200648804706480047FEE7FEE776
:10015000FEE7FEE7FEE7FEE7FEE7FEE7FEE7FEE777
:10016000990D00083101000830B50B46014600200A
:100170002022012409E021FA02F59D4205D303FA69
:1001800002F5491B04FA02F52844151EA2F10102EA
:10019000F1DC30BD064C074D06E0E06840F001039D
:1001A00094E8070098471034AC42F6D3FFF7C4FF39
:1001B00088270008A827000808B50121102000F0B2
:1001C000E9FC4FF48070ADF8000010208DF80300BA
:1001D00003208DF802006946044800F0BEF84FF491
:1001E0008071024800F04DF908BD00000010014088
:1001F00000BFFEE7704701B502E00098401E009086
:1002000000980028F9D108BD07E0022100E000BFF6
:100210000A1EA1F10101FAD100BF011EA0F10100E7
:10022000F3D1704710B50121042000F0B3FC012187
:10023000082000F0AFFC0121062000F08BFC10BD6F
:1002400051B18200A2F1C042126842F00103820063
:10025000A2F1C042136009E08200A2F1C04212681C
:10026000034B1A408300A3F1C0431A60704700009B
:10027000FEFF0F00D0E901121143C2681143026969
:1002800011434269114382691143C2691143026AF1
:100290001143426A1143826A1143C26A1143026BDD
:1002A000114302689200A2F1C042116081680829DE
:1002B0000BD101688900A1F1C041096841F04002F9
:1002C00001688900A1F1C0410A60416B0968426B75
:1002D000526841EA0211426B926841EA0221426B84
:1002E000928941EA0241426B128A41EA0251426B11
:1002F000127D41EA0261426B926911430268521C0D
:100300009200A2F1C0421160C16AB1F5804F1BD1C9
:10031000816B0968826B526841EA0211826B9268B4
:1003200041EA0221826B128A41EA0251826B127DFC
:1003300041EA0261826B9269114302689200A2F164
:10034000C042C2F8041107E06FF0704201688900F2
:10035000A1F1C041C1F8042170472DE9F0410246E6
:1003600000250026002000230024002791F803C068
:100370000CF00F0591F803C00CF0100CBCF1000F4D
:1003800003D091F802C04CEA050591F800C0BCF119
:10039000000F31D0146800202BE04FF0010C0CFA54
:1003A00000F3B1F800C00CEA03069E4220D183009E
:1003B0004FF00F0C0CFA03F7BC4305FA03FC4CEAB0
:1003C000040491F803C0BCF1280F06D14FF0010CD2
:1003D0000CFA00FCC2F814C00AE091F803C0BCF1AA
:1003E000480F05D14FF0010C0CFA00FCC2F810C008
:1003F000401C0828D1D31460B1F800C0BCF1FF0F35
:1004000034DD546800202EE000F1080C4FF00108A4
:1004100008FA0CF3B1F800C00CEA03069E4221D1A1
:1004200083004FF00F0C0CFA03F7BC4305FA03FCF2
:100430004CEA040491F803C0BCF1280F05D100F187
:10044000080C08FA0CF8C2F8148091F803C0BCF14B
:10045000480F07D100F1080C4FF0010808FA0CF81A
:10046000C2F81080401C0828CED35460BDE8F0814B
:100470000246002093680B400BB1012000E00020F1
:1004800070474161704701617047000010B500205E
:100490001549088001211448243800F057FD00BF99
:1004A00001211148243800F067FE0028F8D000210F
:1004B0000D48243800F04AFD01210B48243800F093
:1004C0003FFD0948243800F054FE0446064824380D
:1004D00000F04CFE201A00EB401000EB80004FF4BF
:1004E0007A7190FBF1F010BD2404004010B500209B
:1004F0001549088001211448243800F027FD00BF69
:1005000001211148243800F037FE0028F8D00021DE
:100510000D48243800F01AFD01210B48243800F062
:100520000FFD0948243800F024FE0446064824380C
:1005300000F01CFE201A00EB401000EB80004FF48E
:100540007A7190FBF1F010BD2408004000BFFEE777
:1005500010B5FFF767FE01F0B3FC01F001FC01F0FC
:1005600057FC10BD10B504462CB14FF4805105481E
:10057000FFF787FF04E04FF480510248FFF783FF45
:1005800010BD0000001401402DE9F05F81468A464D
:1005900014461D46DDF828B02B46224651464846F3
:1005A00000F023F904FB05F65F464FF000082C200D
:1005B00000F078FA00BF04E0384600F077FA08F15E
:1005C0000108B045F8D300BFBDE8F09F2DE9F04722
:1005D000804689461546A5F1200000F0FF0A102349
:1005E00008224946404600F000F92C2000F05AFA53
:1005F000002417E00D4800EB0A10065D00270DE00F
:1006000006F0010018B11F2000F050FA03E04FF689
:10061000FF7000F04BFA7610781CC7B2082FEFDBA2
:10062000601CC4B2102CE5DBBDE8F087582100083F
:1006300070B505460E46144617E028460830F028E7
:1006400003DD002506F1100086B230461030B0F50B
:10065000A07F01DD00250026227831462846FFF7DD
:10066000B5FF641C05F1080085B220780028E4D1AC
:1006700070BD00B597B00121080200F05BFA0220BE
:100680000190002002900520039000200490059026
:1006900006904FF0805007900020089009900820A5
:1006A0000A9010200B9000200C900E900F9010904C
:1006B0004FF480501190002012901390149001A8D4
:1006C0001590169008A8FFF7D5FD01210020FFF72F
:1006D000B7FD17B000BD000008B50121084600F0C5
:1006E00059FA0121602000F055FA03208DF802002C
:1006F00018208DF803004CF20370ADF80000694635
:100700002C48FFF72AFE4FF68070ADF800006946CE
:100710002948FFF722FE03208DF8020018208DF8EB
:1007200003001020ADF8000069462248FFF715FECF
:100730002020ADF8000069461E48FFF70EFE01219B
:10074000202000F027FA8020ADF800006946194803
:10075000FFF703FE0121202000F01CFA4FF4006097
:10076000ADF8000069461348FFF7F7FD10208DF83B
:10077000030003208DF802000121402000F00AFA56
:100780000220ADF8000069460B48FFF7E6FD102097
:100790008DF8030003208DF802000121202000F0D5
:1007A000F9F94FF48050ADF8000069460148FFF7B1
:1007B000D4FD08BD001401400018014008B5FFF742
:1007C0008BFFFFF756FF0120FFF7CCFE00F056F934
:1007D00000F03CF84FF6FF704FF4A073F0220021B8
:1007E00000900846FFF7D0FE08BD2DE9F041044611
:1007F0000D4616461F462A2000F054F9201200F03C
:1008000055F9E0B200F052F9A119491EC1F30F20C9
:1008100000F04CF9A119491EC8B200F047F92B208D
:1008200000F040F9281200F041F9E8B200F03EF97A
:10083000E919491EC1F30F2000F038F9E919491EE2
:10084000C8B200F033F9BDE8F081000010B5CF2048
:1008500000F028F9002000F029F9812000F026F9A5
:10086000302000F023F9ED2000F01CF9642000F0A6
:100870001DF9032000F01AF9122000F017F9812069
:1008800000F014F9E82000F00DF9852000F00EF9D1
:10089000102000F00BF9782000F008F9CB2000F0D0
:1008A00001F9392000F002F92C2000F0FFF80020B7
:1008B00000F0FCF8342000F0F9F8022000F0F6F81F
:1008C000F72000F0EFF8202000F0F0F8EA2000F028
:1008D000E9F8002000F0EAF8002000F0E7F8B12085
:1008E00000F0E0F8002000F0E1F81B2000F0DEF856
:1008F000B62000F0D7F80A2000F0D8F8A22000F0C7
:10090000D5F8C02000F0CEF8352000F0CFF8C12097
:1009100000F0C8F8112000F0C9F8C52000F0C2F8B6
:10092000452000F0C3F8452000F0C0F8C72000F0D3
:10093000B9F8A22000F0BAF8F22000F0B3F80020D5
:1009400000F0B4F8262000F0ADF8012000F0AEF879
:10095000E02000F0A7F80F2000F0A8F8262000F013
:10096000A5F8242000F0A2F80B2000F09FF80E203C
:1009700000F09CF8092000F099F8542000F096F857
:10098000A82000F093F8462000F090F80C2000F02A
:100990008DF8172000F08AF8092000F087F80F2062
:1009A00000F084F8072000F081F8002000F07EF8C5
:1009B000E12000F077F8002000F078F8192000F02E
:1009C00075F81B2000F072F8042000F06FF810207A
:1009D00000F06CF8072000F069F82A2000F066F8B3
:1009E000472000F063F8392000F060F8032000F0A1
:1009F0005DF8062000F05AF8062000F057F8302085
:100A000000F054F8382000F051F80F2000F04EF8B4
:100A1000362000F047F8C82000F048F82A2000F0FF
:100A200041F8002000F042F8002000F03FF80020DC
:100A300000F03CF8EF2000F039F82B2000F032F8FD
:100A4000002000F033F8002000F030F8012000F022
:100A50002DF83F2000F02AF83A2000F023F8552026
:100A600000F024F8112000F01DF80348FFF7C3FB45
:100A7000292000F017F810BDFCBF020010B50221BC
:100A80000648FFF7FEFC0648FFF7B5FB02210348C6
:100A9000FFF7F9FC0248FFF7AEFB10BD001801405C
:100AA000FCBF02004FF0C041088070470149088038
:100AB000704700000000026000BFFEE770470000C2
:100AC00070B5002100230F22C47804B3154C2468AC
:100AD00004F4E064C4F5E064210AC1F10403CA40EF
:100AE000447804FA03F184781440214309010E4C40
:100AF0000678A155047804F01F050124AC40057860
:100B00006D11AD0005F1E025C5F8004109E004785C
:100B100004F01F050124AC40044D0678761145F819
:100B2000264070BD0CED00E000E400E080E100E054
:100B30007047000029B1064A52690243044B5A61CA
:100B400004E0034A52698243014B5A617047000036
:100B50000010024029B1064AD2690243044BDA610F
:100B600004E0034AD2698243014BDA617047000016
:100B70000010024029B1064A12690243044B1A616F
:100B800004E0034A12698243014B1A617047000076
:100B90000010024029B1064A92690243044B9A614F
:100BA00004E0034A92698243014B9A617047000056
:100BB0000010024029B1064AD2680243044BDA60B1
:100BC00004E0034AD2688243014BDA6070470000B8
:100BD0000010024030B500210022002400232D4DDA
:100BE0006D6805F00C0121B1042905D0082923D135
:100BF00005E0294D056022E0274D05601FE0254DE9
:100C00006D6805F47012234D6D6805F4803402257B
:100C100005EB92421CB9214D554305600BE01D4D7B
:100C20006D6805F400351DB11C4D5543056002E0AB
:100C3000194D5543056002E0174D056000BF00BF28
:100C4000144D6D6805F0F0010909154D6B5C0568E0
:100C5000DD4045600F4D6D6805F4E061090A104DF7
:100C60006B5C4568DD4085600A4D6D6805F4605138
:100C7000C90A0B4D6B5C4568DD40C560054D6D686C
:100C800005F44041890B074D6B5CC568B5FBF3F576
:100C9000056130BD0010024000127A0000093D00DD
:100CA0000000002010000020704710B500F002F88E
:100CB00010BD00000CB50020019000903348006882
:100CC00040F480303149086000BF3048006800F4CB
:100CD000003000900198401C0190009818B90198CC
:100CE000B0F5A06FF1D12948006800F4003010B1D0
:100CF0000120009001E0002000900098012843D1DD
:100D00002348006840F01000214908600846006848
:100D100020F0030008600846006840F00200086008
:100D20001A484068194948600846406848600846C3
:100D3000406840F4806048600846406820F47C10B9
:100D400048600846406840F4E8104860084600687B
:100D500040F08070086000BF0C48006800F0007030
:100D60000028F9D00948406820F00300074948608E
:100D70000846406840F00200486000BF03484068F1
:100D800000F00C000828F9D10CBD00000010024052
:100D9000002002407047000010B51348006840F082
:100DA00001001149086008464068104908400E4992
:100DB0004860084600680E4908400B49086008462C
:100DC000006820F4802008600846406820F4FE0097
:100DD00048604FF41F008860FFF767FF4FF0006026
:100DE0000449086010BD0000001002400000FFF838
:100DF000FFFFF6FE08ED00E0F0B50C4615460022B8
:100E00000021068C4FF6FE773E400684028B018C53
:100E10004FF60C7632407E1C06EA03162E43324310
:100E2000104EB0420ED0104EB0420BD0B0F1804FF9
:100E300008D00E4EB04205D00D4EB04202D00D4E3D
:100E4000B04206D14FF6FD76314044F00106314301
:100E500005E04FF6F576314044F001063143028358
:100E60000184F0BD002C014000340140000400402A
:100E700000080040000C0040F0B50C46154600226A
:100E800000210026078C4FF6EF7C07EA0C07078449
:100E9000028B018C4FF6FF7707EA041640F6FF47F6
:100EA0003A404FF6FF7707EA03373A434FF6FF77AA
:100EB00007EA05273A43114FB8420ED0104FB84207
:100EC0000BD0B0F1804F08D00E4FB84205D00E4F76
:100ED000B84202D00D4FB84206D14FF6DF77394005
:100EE00046F01007394305E04FF65F77394044F08C
:100EF0001007394302830184F0BD0000002C01403B
:100F0000003401400004004000080040000C004094
:100F100010B50121880700F038F968B10121880770
:100F200000F011F80548007818B100200349087056
:100F300002E001200149087010BD0000600000209F
:100F4000CA4302827047CA430282704721B10288B5
:100F500042F00102028004E002884FF6FE731A405C
:100F60000280704731B1B0F8442042F40042A0F84A
:100F7000442005E0B0F84420C2F30E02A0F844205B
:100F80007047000010B504466848844208D101212A
:100F9000C014FFF70FFE0021E014FFF70BFEC4E0C2
:100FA000B4F1804F08D101210846FFF7E3FD00218D
:100FB0000120FFF7DFFDB8E05D48844208D1012140
:100FC0000220FFF7D7FD00210220FFF7D3FDACE0A0
:100FD0005848844208D101210420FFF7CBFD0021AD
:100FE0000420FFF7C7FDA0E05348844208D1012147
:100FF0000820FFF7BFFD00210820FFF7BBFD94E0AC
:101000004E48844208D101211020FFF7B3FD002192
:101010001020FFF7AFFD88E04948844208D1012144
:101020002020FFF7A7FD00212020FFF7A3FD7CE093
:101030004448844208D101214014FFF7BBFD002140
:101040006014FFF7B7FD70E03F48844209D10121E9
:10105000C804FFF7AFFD00214FF40020FFF7AAFD01
:1010600063E03A48844209D101210805FFF7A2FD57
:1010700000214FF48010FFF79DFD56E03448844274
:1010800009D101214805FFF795FD00214FF400101B
:10109000FFF790FD49E02F48844208D1012140200C
:1010A000FFF768FD00214020FFF764FD3DE02A487E
:1010B000844208D101218020FFF75CFD00218020BF
:1010C000FFF758FD31E02548844208D10121801501
:1010D000FFF750FD0021A015FFF74CFD25E020484B
:1010E000844209D101210804FFF764FD00214FF477
:1010F0008030FFF75FFD18E01A48844209D10121D2
:101100004804FFF757FD00214FF40030FFF752FD70
:101110000BE01548844208D101218804FFF74AFDFD
:1011200000214FF48020FFF745FD10BD002C014049
:101130000004004000080040000C00400010004087
:101140000014004000340140004C014000500140B8
:101150000054014000180040001C004000200040E6
:101160000040014000440140004801400146888E93
:1011700070470146088F704702460020138A0B40D3
:101180000BB1012000E00020704730B5024600207E
:1011900000230024158A05EA0103958905EA010464
:1011A00013B10CB1012000E0002030BD1AB18389D9
:1011B0000B43838102E083898B4383817047000066
:1011C00070B5002400220023058C4FF6FF663540E1
:1011D0000584028C8388848B4FF68F752C404FF6E4
:1011E000FC752C400D882C434FF6FF552A400D8985
:1011F0004FF6FF7606EA05252A434D8806EA0525BF
:101200002A43154DA84202D0144DA8421DD14FF2D9
:10121000FF752A404D894FF6FF7606EA05252A43D9
:101220004FF6FF352A408D8806EA05252A434EF6FB
:10123000FF752B404DF6FF752B408D8906EA05158D
:101240002B43CD8906EA05152B4383808483CD8803
:101250008587028470BD0000002C014000340140ED
:101260000021018041808180C18001814181818193
:10127000C18170472DE9F04105460C460026012743
:10128000608808B9022600E00026A088012801D164
:10129000022700E001272088A0B92389A28861885D
:1012A0002846FFF7A9FDE188284600F033F8238996
:1012B0003A4631462846FFF7DFFDE188284600F030
:1012C00032F813E02389A28861882846FFF7D4FD0D
:1012D000E188284600F027F823893A463146284617
:1012E000FFF78AFDE188284600F014F8BDE8F08198
:1012F0000A46002101894FF68F731940114301817D
:10130000704702894FF67F731A40028102890A43AF
:1013100002817047028B4FF6F3731A400283028BEF
:101320000A4302837047028B4FF2FF331A40028355
:10133000028B4FF6FF7303EA01231A4302837047BF
:10134000002202881D4B98420ED01D4B98420BD0B4
:10135000B0F1804F08D01B4B984205D01A4B9842F1
:1013600002D01A4B984204D14FF68F731A404B8823
:101370001A43174B984207D0164B984204D04FF6A9
:10138000FF431A40CB881A4302808B8883850B88E1
:1013900003850A4B98420BD0094B984208D00E4B5C
:1013A000984205D00D4B984202D00D4B984201D186
:1013B0000B7A03860123838270470000002C0140D2
:1013C000003401400004004000080040000C0040D0
:1013D0000010004000140040004001400044014063
:1013E000004801401FB501210846FFF7B3FB42F258
:1013F0000F70ADF8080041F61F40ADF80400002062
:10140000ADF80A00ADF8060001A94FF08040FFF7E3
:1014100097FF1C208DF8000001208DF801008DF849
:1014200002008DF803006846FFF74AFB01221146CF
:101430009007FFF7BBFE01218807FFF787FD1FBD5F
:101440007047000010B50024094800F067F9C4B2E5
:10145000084809490978445407480078401C06495F
:10146000087008460078C82801DD0020087010BD0B
:1014700000440040680000202800002010B586B01D
:10148000044601214804FFF765FB01210420FFF712
:1014900081FB254800F062F80420ADF81400182004
:1014A0008DF8170003208DF8160005A91F48FEF7D8
:1014B00054FF0820ADF8140004208DF8170005A98A
:1014C0001A48FEF74AFF01940020ADF80800ADF875
:1014D0000A00ADF80C00ADF810000C20ADF80E00BD
:1014E00001A9114800F0AEF826208DF80000012077
:1014F0008DF8010000208DF8020001208DF8030016
:101500006846FFF7DDFA012240F22551064800F057
:1015100073F80121044800F014F84021024800F05B
:1015200007F806B010BD000000440040000801406C
:1015300001F40072B2F5007F00D100BFCA430280FF
:10154000704721B1828942F40052828104E082898D
:101550004DF6FF731A4082817047000010B50446B3
:101560002048844209D101218803FFF723FB002191
:101570004FF48040FFF71EFB32E01B48844209D144
:1015800001214804FFF7F6FA00214FF40030FFF77D
:10159000F1FA25E01548844209D101218804FFF7BA
:1015A000E9FA00214FF48020FFF7E4FA18E0104830
:1015B000844209D10121C804FFF7DCFA00214FF46D
:1015C0000020FFF7D7FA0BE00A48844208D1012136
:1015D0000805FFF7CFFA00214FF48010FFF7CAFA91
:1015E00010BD0000003801400044004000480040A9
:1015F000004C004000500040F0B503460024002697
:101600000025002040F66A17B94200D100BF1846F5
:10161000C1F3421401F01F06012707FA06F5012C59
:1016200001D10C3004E0022C01D1103000E0143064
:101630001AB107682F43076002E00768AF430760ED
:10164000F0BD00002DE9F04786B005460E460024A7
:10165000A24600BFA1460027B08900B100BF2F46B7
:101660002C8A4CF6FF700440F08804432C82AC892D
:101670004EF6F3100440B08831890843718908435D
:101680000443AC81AC8A4FF6FF400440B089044368
:10169000AC8201A8FFF79EFA1F48874202D1DDF80D
:1016A00010A001E0DDF80CA0A88900F4004040B1D2
:1016B0000AEBCA0000EB0A1031684900B0FBF1F8F0
:1016C00007E00AEBCA0000EB0A1031688900B0FBA2
:1016D000F1F86420B8FBF0F004012009642101FB5B
:1016E0001089A88900F4004040B1322000EBC90005
:1016F000B0FBF1F000F00700044308E0322000EBFB
:1017000009106421B0FBF1F000F00F0004432C81BC
:1017100006B0BDE8F0870000003801400146888827
:10172000C0F30800704700BFFEE700000FB4084B8D
:1017300010B504A902AA039800F01CF8044602A9F7
:10174000002000F0B8F9204610BC5DF814FB000042
:10175000B71A000802E008C8121F08C1002AFAD10F
:1017600070477047002001E001C1121F002AFBD121
:10177000704700002DE9FF4F8BB0884605460026D4
:1017800006E025280BD0DDE90D1290476D1C761C74
:1017900028780028F5D10FB03046BDE8F08F00243E
:1017A000A146A2460122AE4900E0044315F8013FDC
:1017B000203B02FA03F00842F7D128782A2810D0FB
:1017C0006FF02F022878A0F13001092915D809EB14
:1017D000890102EB410144F0020400EB01096D1C98
:1017E000F0E758F8041B5FEA010903D544F40054FC
:1017F000C9F1000944F002046D1C28782E2817D185
:1018000015F8010F44F004042A280ED06FF02F02BF
:101810002878A0F1300109290AD80AEB8A0102EBE5
:10182000410100EB010A6D1CF2E758F804AB6D1C96
:1018300028786C280FD006DC4C2817D068280DD0EB
:101840006A2814D104E0742810D07A280FD10DE052
:1018500044F400140AE044F4801401E044F4401419
:101860006978814202D104F580146D1C6D1C2878C2
:10187000692865D006DC00288DD0632827D064282D
:1018800006D15DE06E2808D073282AD0752877D05D
:10189000DDE90D129047761CE0E0C4F30250022807
:1018A00009D003280DD0D8F8001004280DD00E6000
:1018B00008F10408D2E0D8F80010F217C1E900627C
:1018C000F6E7D8F800100E80F2E70E70F0E718F88F
:1018D000041B8DF8001000208DF80100EB4601205C
:1018E00003E058F804BB4FF0FF3061074FF00007EA
:1018F00001D40AE07F1C57450DDA8742FADB1BF85A
:1019000007100029F6D106E07F1C8742FCDB1BF89C
:1019100007100029F8D1DDE90D23A9EB0700814666
:10192000214600F0B1F83044C61904E0DDE90D129B
:101930001BF8010B90477F1EF8D22146484688E0ED
:1019400058F8040BC4F302514FF00A0B032900D1DD
:1019500000B2042900D140B2002802DA40422D2111
:1019600002E0210505D52B218DF82410012104E08A
:1019700006E0E10710D02021F6E708AF089113E058
:1019800058F8040BC4F302514FF00A0B032900D19D
:1019900080B2042900D1C0B20021EEE75946FEF71B
:1019A000E3FB303107F8011D0028F7D1ADEB07004C
:1019B00000F1200B600702D524F4803401E04FF0E1
:1019C000010ADA4502DDAAEB0B0000E000208246A6
:1019D00000EB0B0108980144A9EB01000A90E00319
:1019E00006D4DDE90D2321460A9800F04DF806449F
:1019F0004FF0000908E009A911F80900DDE90D120E
:101A0000904709F10109761C08998945F3DBE00349
:101A10000CD5DDE90D2321460A9800F035F806447F
:101A200004E0DDE90D1230209047761CBAF1000188
:101A3000AAF1010AF5DC05E0DDE90D1217F8010B4A
:101A40009047761CBBF10001ABF1010BF4DC0A9866
:101A50002146DDE90D2300F005F806446D1C97E6EC
:101A6000092801002DE9F041044600251E461746CD
:101A7000880404D405E039462020B0476D1C641E5C
:101A8000F9D52846BDE8F0812DE9F041044600254E
:101A90001E469046C80301D5302700E02027880461
:101AA00004D505E041463846B0476D1C641EF9D5A3
:101AB0002846BDE8F0810A68531C0B60107070471F
:101AC00010B504464FF480710748FEF7DCFC204651
:101AD000FEF79AFB4FF480710348FEF7D2FC2046D4
:101AE000FEF792FB10BD00000010014000B585B06C
:101AF0003F4840A1026804A8FFF718FE3F483DA1F7
:101B0000026803A8FFF712FE3D483AA1026802A846
:101B1000FFF70CFE3B4837A1026801A8FFF706FE5D
:101B2000394834A102686846FFF700FE37A2052154
:101B30000F20FEF77DFD3BA219210F20FEF778FD57
:101B40003FA22D210F20FEF773FD04AA2D21BE20F8
:101B5000FEF76EFD40A22D21D720FEF769FD40A2C1
:101B600041210F20FEF764FD03AA4121BE20FEF7AC
:101B70005FFD39A24121D720FEF75AFD3EA25F2129
:101B80000F20FEF755FD02AA5F21BE20FEF750FD93
:101B90003DA273210F20FEF74BFD01AA7321BE2049
:101BA000FEF746FD3CA282210020FEF741FD42A245
:101BB00091216420FEF73CFD41A2A0210F20FEF7F9
:101BC00037FD44A2AF210F20FEF732FD45A2E621EA
:101BD0000F20FEF72DFD6A46E621BE20FEF728FD08
:101BE0001DA2E621D720FEF723FD05B000BD0000B1
:101BF0003000002025303369000000003400002050
:101C0000480000204C0000203C000020506574205B
:101C10005365637572697479204D6F6E69746F7264
:101C2000000000005969702050616B204B696E20E4
:101C300026204B6F204368756E6720506F6E6700DB
:101C400044697374616E6365206F662053656E73BB
:101C50006F7220313A0000006D6D202020200000BE
:101C600044697374616E6365206F662053656E739B
:101C70006F7220323A0000005761726E696E672001
:101C800054696D65733A200044616E676572205433
:101C9000496D65733A2000002A2A2A2A2A2A2A2A0C
:101CA0002A2A2A2A2A2A2A2A2A2A2A2A2A2A2A2A94
:101CB0002A2A2A2A2A2A00004D656E750000000093
:101CC00031292043616C6C204F7574205465737406
:101CD000000000003229204578706F727420646122
:101CE0007461000053617665642053616665204429
:101CF000697374616E6365203A00000010B54FF49B
:101D000000510748FEF7B4FB012807D105480068D9
:101D1000012803D120210448FEF7B3FB10BD0000C9
:101D2000001001405C000020000C014010B54FF491
:101D300000510848FEF79CFB012809D106480068BD
:101D400030B902210548FEF79CFB012002490860DA
:101D500010BD0000001001405C000020000C01409C
:101D600010B52448FEF736FF224800682249B0FB30
:101D7000F1F0401E214908802148FFF703F91F4870
:101D8000008820490880002048804FF6FF70888036
:101D90000020C8801A48FFF7D3FA1B48FFF760FA03
:101DA000602019490880012048800F20C880002049
:101DB00008811348FFF704FA00201449088048807E
:101DC000012088800020C88008810D48FFF752FA62
:101DD00050210B48FFF78CFA80210948FFF791FA50
:101DE00001210748FFF7BEF801210548FFF7A8F8D1
:101DF00010BD00003001002040420F0062000020B2
:101E000000040040440100204E0100205E0100203B
:101E100010B52448FEF7DEFE224800682249B0FBD8
:101E2000F1F0401E214908802148FFF7ABF81F4818
:101E3000008820490880002048804FF6FF70888085
:101E40000020C8801A48FFF77BFA1B48FFF708FA02
:101E5000602019490880012048800F20C880002098
:101E600008811348FFF7ACF9002014490880488026
:101E7000012088800020C88008810D48FFF7FAF90A
:101E800050210B48FFF734FA80210948FFF739FA4F
:101E900001210748FFF766F801210548FFF750F8D0
:101EA00010BD00006801002040420F0064000020C7
:101EB000000800407C0100208601002096010020DF
:101EC00008B50120ADF8000003208DF802001820AD
:101ED0008DF8030069461648FEF73FFA4020ADF83A
:101EE000000003208DF8020004208DF803006946ED
:101EF0001048FEF732FA4FF48070ADF8000003206E
:101F00008DF8020018208DF8030069460848FEF796
:101F100024FA4020ADF8000003208DF802000420D0
:101F20008DF8030069460248FEF717FA08BD000065
:101F3000000C014000080140FEF740FCFEF708FBE2
:101F4000FEF73AF94FF4E130FFF798FAFFF74AFA53
:101F500011E0FEF79BFA08490860FEF7C7FA074947
:101F60000860FFF7E3FE00F0C1F800F009F8FFF7A2
:101F7000C5FEFFF7BBFDECE7300000203400002079
:101F800010B550480068002802DA00204D4908606A
:101F90004D480068002802DA00204B4908604B4891
:101FA0000068002802DA00204849086045480068B7
:101FB00047490968884205DA46480068401C454997
:101FC000086016E04048006843490968884205DA1D
:101FD00042480068401C414908600AE03B480068EC
:101FE0003F490968884204DA3E480068401C3D4980
:101FF000086038480068002809DD3848006830B9B2
:102000003848006818B93848FFF75AFD58E0314998
:10201000096871B12F49086800EBD0714910A0EB35
:10202000410131B92D49096819B9002029490860D1
:1020300046E02848006800280BDD28480068002892
:1020400007DD2848006820B942F21070FFF738FD1C
:1020500036E02249096889B12049086800EBD0714F
:102060004910A0EB410149B91A49096831B11E482C
:10207000FFF726FD00201949086021E01548006897
:1020800000280CDD15480068002808DD15480068A8
:10209000002804DD41F28830FFF712FD10E01149FD
:1020A000096869B10F49086800EBD0714910A0EBCD
:1020B000410129B90949096811B10020094908609D
:1020C00010BD000030000020340000203800002047
:1020D0003C00002050000020400000205400002060
:1020E0004400002058000020A086010010B5012106
:1020F0001448FEF7BDF9012823D1134800681438AD
:1021000012490860104800681438114908600E48E8
:10211000006814380F4908600C480068002802DA8B
:1021200000200A4908600A480068002802DA0020F6
:102130000749086007480068002802DA00200549BE
:10214000086010BD00080140300000203C00002065
:1021500040000020440000200000000000000000BB
:102160000000000000000000000000183C3C3C188B
:1021700018001818000000000000006666660000E5
:1021800000000000000000000000006C6CFE6C6CA1
:102190006CFE6C6C000000000018183C66060C1801
:1021A0003060663C1818000000000E1B5B6E301893
:1021B0000C76DAD8700000000000001C36361C06D1
:1021C000F66666DC00000000000000181818000029
:1021D00000000000000000000000003018180C0C87
:1021E0000C0C0C18183000000000000C18183030CF
:1021F00030303018180C000000000000006C38FE71
:10220000386C000000000000000000000018187E7C
:10221000181800000000000000000000000000008E
:102220000000383830180000000000000000007E78
:10223000000000000000000000000000000000009E
:1022400000003838000000000000006060303018E6
:10225000180C0C060600000000000078CCECECCC5A
:10226000DCDCCC780000000000000030383E30306C
:1022700030303030000000000000003C6666603006
:10228000180C067E000000000000003C6666603806
:102290006066663C000000000000000C0C6C6C6C7A
:1022A00066FE6060000000000000007E0606063E3C
:1022B0006060301E0000000000000038180C3E6610
:1022C0006666663C000000000000007E603030184A
:1022D000180C0C0C000000000000003C66666E3C10
:1022E0007666663C000000000000003C666666669C
:1022F0007C30181C0000000000000000003838008E
:1023000000003838000000000000000000383800ED
:1023100000003838301800000000006030180C064B
:102320000C183060000000000000000000007E007B
:102330007E00000000000000000000060C18306065
:1023400030180C06000000000000003C66663018E3
:1023500018001818000000000000007EC3C3F3DB63
:10236000DBF303FE00000000000000183C66666618
:102370007E666666000000000000003E6666663EFF
:102380006666663E000000000000003C66660606C9
:102390000666663C000000000000001E36666666A9
:1023A0006666361E000000000000007E0606063E3F
:1023B0000606067E000000000000007E0606063EBF
:1023C00006060606000000000000003C66660606E1
:1023D0007666667C00000000000000666666667E29
:1023E00066666666000000000000003C18181818B9
:1023F0001818183C00000000000000606060606079
:102400006066663C00000000000000666636361E0E
:102410003636666600000000000000060606060666
:102420000606067E00000000000000C6C6EED6D6F6
:10243000D6C6C6C600000000000000C6C6CEDEF646
:10244000E6C6C6C6000000000000003C6666666680
:102450006666663C000000000000003E6666663E60
:1024600006060606000000000000003C6666666680
:102470006666663C306000000000003E6666663EB0
:1024800036666666000000000000003C66060C1818
:102490003060663C000000000000007E181818182C
:1024A00018181818000000000000006666666666CE
:1024B0006666663C000000000000006666666666B0
:1024C00066663C1800000000000000C6C6C6D6D6EE
:1024D000D66C6C6C0000000000000066662C1818BA
:1024E0003466666600000000000000666666663CB2
:1024F00018181818000000000000007E60603018F6
:102500000C06067E000000000000003C0C0C0C0CC9
:102510000C0C0C0C0C0C3C0000000006060C0C18FB
:1025200018303060600000000000003C3030303077
:102530003030303030303C0000183C660000000085
:10254000000000000000000000000000000000008B
:10255000000000000000FF00001C18300000000018
:10256000000000000000000000000000003C60606F
:102570007C66667C0000000000000006063E666681
:102580006666663E0000000000000000003C660633
:102590000606663C0000000000000060607C666685
:1025A0006666667C0000000000000000003C666675
:1025B0007E06063C00000000000000780C0C0C7E3B
:1025C0000C0C0C0C0000000000000000007C666693
:1025D0006666667C60603E0000000006063E666639
:1025E000666666660000000000001818001E1818D5
:1025F0001818187E0000000000003030003C303019
:102600003030303030301E0000000006066666367E
:102610001E366666000000000000001E181818181C
:102620001818187E0000000000000000007ED6D6BA
:10263000D6D6D6C60000000000000000003E666648
:10264000666666660000000000000000003C6666EA
:102650006666663C0000000000000000003E666602
:102660006666663E0606060000000000007C6666A0
:102670006666667C60606000000000000066760EA2
:10268000060606060000000000000000007C0606AA
:102690003C60603E000000000000000C0C7E0C0C52
:1026A0000C0C0C780000000000000000006666665C
:1026B0006666667C0000000000000000006666663A
:1026C00066663C18000000000000000000C6D6D678
:1026D000D6D66C6C00000000000000000066663C6E
:1026E000183C666600000000000000000066666698
:1026F0006666663C30180F0000000000007E603007
:10270000180C067E00000000000000301818180C9D
:10271000060C1818183000000000001818181818B7
:1027200018181818181818000000000C181818307D
:1027300060301818180C00000000008EDB710000DB
:1027400000000000000000004154443636383030AC
:102750003631333B0D0A0000454C454333333030AE
:102760002049204C4F56452055212100222B383539
:1027700032393230343030333122000022393338AC
:102780003632393636220000A82700080000002023
:102790006800000054170008102800086800002096
:1027A000380500006417000800000000010203045F
:1027B00001020304060708090204060800000000DD
:1027C000482700086C2700087C27000858270008C5
:1027D00000000000000000000000000000000000F9
:1027E00000000000FFFFFFFFFFFFFFFFFFFFFFFFF5
:1027F00000000000000000000000000000000000D9
:1028000000000000000000000101000000000000C6
:0400000508000131BD
:00000001FF
